{
  "_format": "hh-sol-artifact-1",
  "contractName": "UnshelvedElvesSeries1",
  "sourceName": "contracts/UnshelvedElvesSeries1.sol",
  "abi": [
    {
      "inputs": [
        {
          "internalType": "string",
          "name": "baseURI",
          "type": "string"
        }
      ],
      "stateMutability": "nonpayable",
      "type": "constructor"
    },
    {
      "anonymous": false,
      "inputs": [
        {
          "indexed": true,
          "internalType": "address",
          "name": "owner",
          "type": "address"
        },
        {
          "indexed": true,
          "internalType": "address",
          "name": "approved",
          "type": "address"
        },
        {
          "indexed": true,
          "internalType": "uint256",
          "name": "tokenId",
          "type": "uint256"
        }
      ],
      "name": "Approval",
      "type": "event"
    },
    {
      "anonymous": false,
      "inputs": [
        {
          "indexed": true,
          "internalType": "address",
          "name": "owner",
          "type": "address"
        },
        {
          "indexed": true,
          "internalType": "address",
          "name": "operator",
          "type": "address"
        },
        {
          "indexed": false,
          "internalType": "bool",
          "name": "approved",
          "type": "bool"
        }
      ],
      "name": "ApprovalForAll",
      "type": "event"
    },
    {
      "anonymous": false,
      "inputs": [
        {
          "indexed": true,
          "internalType": "address",
          "name": "previousOwner",
          "type": "address"
        },
        {
          "indexed": true,
          "internalType": "address",
          "name": "newOwner",
          "type": "address"
        }
      ],
      "name": "OwnershipTransferred",
      "type": "event"
    },
    {
      "anonymous": false,
      "inputs": [
        {
          "indexed": true,
          "internalType": "address",
          "name": "from",
          "type": "address"
        },
        {
          "indexed": true,
          "internalType": "address",
          "name": "to",
          "type": "address"
        },
        {
          "indexed": true,
          "internalType": "uint256",
          "name": "tokenId",
          "type": "uint256"
        }
      ],
      "name": "Transfer",
      "type": "event"
    },
    {
      "inputs": [],
      "name": "MAX_PER_MINT",
      "outputs": [
        {
          "internalType": "uint256",
          "name": "",
          "type": "uint256"
        }
      ],
      "stateMutability": "view",
      "type": "function"
    },
    {
      "inputs": [],
      "name": "MAX_SUPPLY",
      "outputs": [
        {
          "internalType": "uint256",
          "name": "",
          "type": "uint256"
        }
      ],
      "stateMutability": "view",
      "type": "function"
    },
    {
      "inputs": [],
      "name": "PRICE",
      "outputs": [
        {
          "internalType": "uint256",
          "name": "",
          "type": "uint256"
        }
      ],
      "stateMutability": "view",
      "type": "function"
    },
    {
      "inputs": [
        {
          "internalType": "address",
          "name": "to",
          "type": "address"
        },
        {
          "internalType": "uint256",
          "name": "tokenId",
          "type": "uint256"
        }
      ],
      "name": "approve",
      "outputs": [],
      "stateMutability": "nonpayable",
      "type": "function"
    },
    {
      "inputs": [
        {
          "internalType": "address",
          "name": "owner",
          "type": "address"
        }
      ],
      "name": "balanceOf",
      "outputs": [
        {
          "internalType": "uint256",
          "name": "",
          "type": "uint256"
        }
      ],
      "stateMutability": "view",
      "type": "function"
    },
    {
      "inputs": [],
      "name": "baseTokenURI",
      "outputs": [
        {
          "internalType": "string",
          "name": "",
          "type": "string"
        }
      ],
      "stateMutability": "view",
      "type": "function"
    },
    {
      "inputs": [
        {
          "internalType": "uint256",
          "name": "tokenId",
          "type": "uint256"
        }
      ],
      "name": "getApproved",
      "outputs": [
        {
          "internalType": "address",
          "name": "",
          "type": "address"
        }
      ],
      "stateMutability": "view",
      "type": "function"
    },
    {
      "inputs": [
        {
          "internalType": "address",
          "name": "owner",
          "type": "address"
        },
        {
          "internalType": "address",
          "name": "operator",
          "type": "address"
        }
      ],
      "name": "isApprovedForAll",
      "outputs": [
        {
          "internalType": "bool",
          "name": "",
          "type": "bool"
        }
      ],
      "stateMutability": "view",
      "type": "function"
    },
    {
      "inputs": [
        {
          "internalType": "uint256",
          "name": "_count",
          "type": "uint256"
        }
      ],
      "name": "mintNFTs",
      "outputs": [],
      "stateMutability": "payable",
      "type": "function"
    },
    {
      "inputs": [],
      "name": "name",
      "outputs": [
        {
          "internalType": "string",
          "name": "",
          "type": "string"
        }
      ],
      "stateMutability": "view",
      "type": "function"
    },
    {
      "inputs": [],
      "name": "owner",
      "outputs": [
        {
          "internalType": "address",
          "name": "",
          "type": "address"
        }
      ],
      "stateMutability": "view",
      "type": "function"
    },
    {
      "inputs": [
        {
          "internalType": "uint256",
          "name": "tokenId",
          "type": "uint256"
        }
      ],
      "name": "ownerOf",
      "outputs": [
        {
          "internalType": "address",
          "name": "",
          "type": "address"
        }
      ],
      "stateMutability": "view",
      "type": "function"
    },
    {
      "inputs": [],
      "name": "renounceOwnership",
      "outputs": [],
      "stateMutability": "nonpayable",
      "type": "function"
    },
    {
      "inputs": [
        {
          "internalType": "uint256",
          "name": "_count",
          "type": "uint256"
        }
      ],
      "name": "reserveNFTs",
      "outputs": [],
      "stateMutability": "nonpayable",
      "type": "function"
    },
    {
      "inputs": [
        {
          "internalType": "address",
          "name": "from",
          "type": "address"
        },
        {
          "internalType": "address",
          "name": "to",
          "type": "address"
        },
        {
          "internalType": "uint256",
          "name": "tokenId",
          "type": "uint256"
        }
      ],
      "name": "safeTransferFrom",
      "outputs": [],
      "stateMutability": "nonpayable",
      "type": "function"
    },
    {
      "inputs": [
        {
          "internalType": "address",
          "name": "from",
          "type": "address"
        },
        {
          "internalType": "address",
          "name": "to",
          "type": "address"
        },
        {
          "internalType": "uint256",
          "name": "tokenId",
          "type": "uint256"
        },
        {
          "internalType": "bytes",
          "name": "_data",
          "type": "bytes"
        }
      ],
      "name": "safeTransferFrom",
      "outputs": [],
      "stateMutability": "nonpayable",
      "type": "function"
    },
    {
      "inputs": [
        {
          "internalType": "address",
          "name": "operator",
          "type": "address"
        },
        {
          "internalType": "bool",
          "name": "approved",
          "type": "bool"
        }
      ],
      "name": "setApprovalForAll",
      "outputs": [],
      "stateMutability": "nonpayable",
      "type": "function"
    },
    {
      "inputs": [
        {
          "internalType": "string",
          "name": "_baseTokenURI",
          "type": "string"
        }
      ],
      "name": "setBaseURI",
      "outputs": [],
      "stateMutability": "nonpayable",
      "type": "function"
    },
    {
      "inputs": [
        {
          "internalType": "bytes4",
          "name": "interfaceId",
          "type": "bytes4"
        }
      ],
      "name": "supportsInterface",
      "outputs": [
        {
          "internalType": "bool",
          "name": "",
          "type": "bool"
        }
      ],
      "stateMutability": "view",
      "type": "function"
    },
    {
      "inputs": [],
      "name": "symbol",
      "outputs": [
        {
          "internalType": "string",
          "name": "",
          "type": "string"
        }
      ],
      "stateMutability": "view",
      "type": "function"
    },
    {
      "inputs": [
        {
          "internalType": "uint256",
          "name": "index",
          "type": "uint256"
        }
      ],
      "name": "tokenByIndex",
      "outputs": [
        {
          "internalType": "uint256",
          "name": "",
          "type": "uint256"
        }
      ],
      "stateMutability": "view",
      "type": "function"
    },
    {
      "inputs": [
        {
          "internalType": "address",
          "name": "owner",
          "type": "address"
        },
        {
          "internalType": "uint256",
          "name": "index",
          "type": "uint256"
        }
      ],
      "name": "tokenOfOwnerByIndex",
      "outputs": [
        {
          "internalType": "uint256",
          "name": "",
          "type": "uint256"
        }
      ],
      "stateMutability": "view",
      "type": "function"
    },
    {
      "inputs": [
        {
          "internalType": "uint256",
          "name": "tokenId",
          "type": "uint256"
        }
      ],
      "name": "tokenURI",
      "outputs": [
        {
          "internalType": "string",
          "name": "",
          "type": "string"
        }
      ],
      "stateMutability": "view",
      "type": "function"
    },
    {
      "inputs": [
        {
          "internalType": "address",
          "name": "_owner",
          "type": "address"
        }
      ],
      "name": "tokensOfOwner",
      "outputs": [
        {
          "internalType": "uint256[]",
          "name": "",
          "type": "uint256[]"
        }
      ],
      "stateMutability": "view",
      "type": "function"
    },
    {
      "inputs": [],
      "name": "totalSupply",
      "outputs": [
        {
          "internalType": "uint256",
          "name": "",
          "type": "uint256"
        }
      ],
      "stateMutability": "view",
      "type": "function"
    },
    {
      "inputs": [
        {
          "internalType": "address",
          "name": "from",
          "type": "address"
        },
        {
          "internalType": "address",
          "name": "to",
          "type": "address"
        },
        {
          "internalType": "uint256",
          "name": "tokenId",
          "type": "uint256"
        }
      ],
      "name": "transferFrom",
      "outputs": [],
      "stateMutability": "nonpayable",
      "type": "function"
    },
    {
      "inputs": [
        {
          "internalType": "address",
          "name": "newOwner",
          "type": "address"
        }
      ],
      "name": "transferOwnership",
      "outputs": [],
      "stateMutability": "nonpayable",
      "type": "function"
    },
    {
      "inputs": [],
      "name": "withdraw",
      "outputs": [],
      "stateMutability": "payable",
      "type": "function"
    }
  ],
  "bytecode": "0x60806040523480156200001157600080fd5b506040516200490d3803806200490d833981810160405281019062000037919062000401565b6040518060400160405280601a81526020017f556e7368656c76656420456c76657320285365726965732031290000000000008152506040518060400160405280600381526020017f55453100000000000000000000000000000000000000000000000000000000008152508160009080519060200190620000bb929190620002df565b508060019080519060200190620000d4929190620002df565b505050620000f7620000eb6200012660201b60201c565b6200012e60201b60201c565b6200010881620001f460201b60201c565b6200011f600b6200029f60201b620016e31760201c565b5062000639565b600033905090565b6000600a60009054906101000a900473ffffffffffffffffffffffffffffffffffffffff16905081600a60006101000a81548173ffffffffffffffffffffffffffffffffffffffff021916908373ffffffffffffffffffffffffffffffffffffffff1602179055508173ffffffffffffffffffffffffffffffffffffffff168173ffffffffffffffffffffffffffffffffffffffff167f8be0079c531659141344cd1fd0a4f28419497f9722a3daafe3b4186f6b6457e060405160405180910390a35050565b620002046200012660201b60201c565b73ffffffffffffffffffffffffffffffffffffffff166200022a620002b560201b60201c565b73ffffffffffffffffffffffffffffffffffffffff161462000283576040517f08c379a00000000000000000000000000000000000000000000000000000000081526004016200027a906200046d565b60405180910390fd5b80600c90805190602001906200029b929190620002df565b5050565b6001816000016000828254019250508190555050565b6000600a60009054906101000a900473ffffffffffffffffffffffffffffffffffffffff16905090565b828054620002ed9062000535565b90600052602060002090601f0160209004810192826200031157600085556200035d565b82601f106200032c57805160ff19168380011785556200035d565b828001600101855582156200035d579182015b828111156200035c5782518255916020019190600101906200033f565b5b5090506200036c919062000370565b5090565b5b808211156200038b57600081600090555060010162000371565b5090565b6000620003a6620003a084620004b8565b6200048f565b905082815260208101848484011115620003bf57600080fd5b620003cc848285620004ff565b509392505050565b600082601f830112620003e657600080fd5b8151620003f88482602086016200038f565b91505092915050565b6000602082840312156200041457600080fd5b600082015167ffffffffffffffff8111156200042f57600080fd5b6200043d84828501620003d4565b91505092915050565b600062000455602083620004ee565b9150620004628262000610565b602082019050919050565b60006020820190508181036000830152620004888162000446565b9050919050565b60006200049b620004ae565b9050620004a982826200056b565b919050565b6000604051905090565b600067ffffffffffffffff821115620004d657620004d5620005d0565b5b620004e182620005ff565b9050602081019050919050565b600082825260208201905092915050565b60005b838110156200051f57808201518184015260208101905062000502565b838111156200052f576000848401525b50505050565b600060028204905060018216806200054e57607f821691505b60208210811415620005655762000564620005a1565b5b50919050565b6200057682620005ff565b810181811067ffffffffffffffff82111715620005985762000597620005d0565b5b80604052505050565b7f4e487b7100000000000000000000000000000000000000000000000000000000600052602260045260246000fd5b7f4e487b7100000000000000000000000000000000000000000000000000000000600052604160045260246000fd5b6000601f19601f8301169050919050565b7f4f776e61626c653a2063616c6c6572206973206e6f7420746865206f776e6572600082015250565b6142c480620006496000396000f3fe6080604052600436106101b75760003560e01c80636352211e116100ec578063a22cb4651161008a578063c87b56dd11610064578063c87b56dd146105f0578063d547cfb71461062d578063e985e9c514610658578063f2fde38b14610695576101b7565b8063a22cb46514610575578063b88d4fde1461059e578063bc7df091146105c7576101b7565b80638462151c116100c65780638462151c146104b75780638d859f3e146104f45780638da5cb5b1461051f57806395d89b411461054a576101b7565b80636352211e1461042657806370a0823114610463578063715018a6146104a0576101b7565b80632f745c59116101595780633ccfd60b116101335780633ccfd60b1461038d57806342842e0e146103975780634f6ccce7146103c057806355f804b3146103fd576101b7565b80632f745c591461030957806332cb6b0c146103465780633b4b138114610371576101b7565b8063095ea7b311610195578063095ea7b31461026157806309d42b301461028a57806318160ddd146102b557806323b872dd146102e0576101b7565b806301ffc9a7146101bc57806306fdde03146101f9578063081812fc14610224575b600080fd5b3480156101c857600080fd5b506101e360048036038101906101de9190612dde565b6106be565b6040516101f0919061341c565b60405180910390f35b34801561020557600080fd5b5061020e610738565b60405161021b9190613437565b60405180910390f35b34801561023057600080fd5b5061024b60048036038101906102469190612e71565b6107ca565b6040516102589190613393565b60405180910390f35b34801561026d57600080fd5b5061028860048036038101906102839190612da2565b61084f565b005b34801561029657600080fd5b5061029f610967565b6040516102ac9190613759565b60405180910390f35b3480156102c157600080fd5b506102ca61096c565b6040516102d79190613759565b60405180910390f35b3480156102ec57600080fd5b5061030760048036038101906103029190612c9c565b610979565b005b34801561031557600080fd5b50610330600480360381019061032b9190612da2565b6109d9565b60405161033d9190613759565b60405180910390f35b34801561035257600080fd5b5061035b610a7e565b6040516103689190613759565b60405180910390f35b61038b60048036038101906103869190612e71565b610a84565b005b610395610c2a565b005b3480156103a357600080fd5b506103be60048036038101906103b99190612c9c565b610d9e565b005b3480156103cc57600080fd5b506103e760048036038101906103e29190612e71565b610dbe565b6040516103f49190613759565b60405180910390f35b34801561040957600080fd5b50610424600480360381019061041f9190612e30565b610e55565b005b34801561043257600080fd5b5061044d60048036038101906104489190612e71565b610eeb565b60405161045a9190613393565b60405180910390f35b34801561046f57600080fd5b5061048a60048036038101906104859190612c37565b610f9d565b6040516104979190613759565b60405180910390f35b3480156104ac57600080fd5b506104b5611055565b005b3480156104c357600080fd5b506104de60048036038101906104d99190612c37565b6110dd565b6040516104eb91906133fa565b60405180910390f35b34801561050057600080fd5b506105096111d7565b6040516105169190613759565b60405180910390f35b34801561052b57600080fd5b506105346111e3565b6040516105419190613393565b60405180910390f35b34801561055657600080fd5b5061055f61120d565b60405161056c9190613437565b60405180910390f35b34801561058157600080fd5b5061059c60048036038101906105979190612d66565b61129f565b005b3480156105aa57600080fd5b506105c560048036038101906105c09190612ceb565b6112b5565b005b3480156105d357600080fd5b506105ee60048036038101906105e99190612e71565b611317565b005b3480156105fc57600080fd5b5061061760048036038101906106129190612e71565b611422565b6040516106249190613437565b60405180910390f35b34801561063957600080fd5b506106426114c9565b60405161064f9190613437565b60405180910390f35b34801561066457600080fd5b5061067f600480360381019061067a9190612c60565b611557565b60405161068c919061341c565b60405180910390f35b3480156106a157600080fd5b506106bc60048036038101906106b79190612c37565b6115eb565b005b60007f780e9d63000000000000000000000000000000000000000000000000000000007bffffffffffffffffffffffffffffffffffffffffffffffffffffffff1916827bffffffffffffffffffffffffffffffffffffffffffffffffffffffff191614806107315750610730826116f9565b5b9050919050565b60606000805461074790613a4d565b80601f016020809104026020016040519081016040528092919081815260200182805461077390613a4d565b80156107c05780601f10610795576101008083540402835291602001916107c0565b820191906000526020600020905b8154815290600101906020018083116107a357829003601f168201915b5050505050905090565b60006107d5826117db565b610814576040517f08c379a000000000000000000000000000000000000000000000000000000000815260040161080b90613659565b60405180910390fd5b6004600083815260200190815260200160002060009054906101000a900473ffffffffffffffffffffffffffffffffffffffff169050919050565b600061085a82610eeb565b90508073ffffffffffffffffffffffffffffffffffffffff168373ffffffffffffffffffffffffffffffffffffffff1614156108cb576040517f08c379a00000000000000000000000000000000000000000000000000000000081526004016108c2906136d9565b60405180910390fd5b8073ffffffffffffffffffffffffffffffffffffffff166108ea611847565b73ffffffffffffffffffffffffffffffffffffffff161480610919575061091881610913611847565b611557565b5b610958576040517f08c379a000000000000000000000000000000000000000000000000000000000815260040161094f906135b9565b60405180910390fd5b610962838361184f565b505050565b600581565b6000600880549050905090565b61098a610984611847565b82611908565b6109c9576040517f08c379a00000000000000000000000000000000000000000000000000000000081526004016109c090613719565b60405180910390fd5b6109d48383836119e6565b505050565b60006109e483610f9d565b8210610a25576040517f08c379a0000000000000000000000000000000000000000000000000000000008152600401610a1c90613499565b60405180910390fd5b600660008473ffffffffffffffffffffffffffffffffffffffff1673ffffffffffffffffffffffffffffffffffffffff168152602001908152602001600020600083815260200190815260200160002054905092915050565b614e2081565b6000610a90600b611c42565b90506000678ac7230489e800009050614e20610ab58484611c5090919063ffffffff16565b1115610af6576040517f08c379a0000000000000000000000000000000000000000000000000000000008152600401610aed90613479565b60405180910390fd5b600083118015610b07575060058311155b610b46576040517f08c379a0000000000000000000000000000000000000000000000000000000008152600401610b3d90613559565b60405180910390fd5b6002831415610b5f5767796e3ea3f8ab00009050610ba9565b6003831415610b78576768155a43676e00009050610ba8565b6004831415610b91576756bc75e2d63100009050610ba7565b6005831415610ba657674563918244f4000090505b5b5b5b610bbc8382611c6690919063ffffffff16565b341015610bfe576040517f08c379a0000000000000000000000000000000000000000000000000000000008152600401610bf590613459565b60405180910390fd5b60005b83811015610c2457610c11611c7c565b8080610c1c90613ab0565b915050610c01565b50505050565b610c32611847565b73ffffffffffffffffffffffffffffffffffffffff16610c506111e3565b73ffffffffffffffffffffffffffffffffffffffff1614610ca6576040517f08c379a0000000000000000000000000000000000000000000000000000000008152600401610c9d90613679565b60405180910390fd5b600047905060008111610cee576040517f08c379a0000000000000000000000000000000000000000000000000000000008152600401610ce590613599565b60405180910390fd5b60003373ffffffffffffffffffffffffffffffffffffffff1682604051610d149061337e565b60006040518083038185875af1925050503d8060008114610d51576040519150601f19603f3d011682016040523d82523d6000602084013e610d56565b606091505b5050905080610d9a576040517f08c379a0000000000000000000000000000000000000000000000000000000008152600401610d91906136f9565b60405180910390fd5b5050565b610db9838383604051806020016040528060008152506112b5565b505050565b6000610dc861096c565b8210610e09576040517f08c379a0000000000000000000000000000000000000000000000000000000008152600401610e0090613739565b60405180910390fd5b60088281548110610e43577f4e487b7100000000000000000000000000000000000000000000000000000000600052603260045260246000fd5b90600052602060002001549050919050565b610e5d611847565b73ffffffffffffffffffffffffffffffffffffffff16610e7b6111e3565b73ffffffffffffffffffffffffffffffffffffffff1614610ed1576040517f08c379a0000000000000000000000000000000000000000000000000000000008152600401610ec890613679565b60405180910390fd5b80600c9080519060200190610ee7929190612a5b565b5050565b6000806002600084815260200190815260200160002060009054906101000a900473ffffffffffffffffffffffffffffffffffffffff169050600073ffffffffffffffffffffffffffffffffffffffff168173ffffffffffffffffffffffffffffffffffffffff161415610f94576040517f08c379a0000000000000000000000000000000000000000000000000000000008152600401610f8b906135f9565b60405180910390fd5b80915050919050565b60008073ffffffffffffffffffffffffffffffffffffffff168273ffffffffffffffffffffffffffffffffffffffff16141561100e576040517f08c379a0000000000000000000000000000000000000000000000000000000008152600401611005906135d9565b60405180910390fd5b600360008373ffffffffffffffffffffffffffffffffffffffff1673ffffffffffffffffffffffffffffffffffffffff168152602001908152602001600020549050919050565b61105d611847565b73ffffffffffffffffffffffffffffffffffffffff1661107b6111e3565b73ffffffffffffffffffffffffffffffffffffffff16146110d1576040517f08c379a00000000000000000000000000000000000000000000000000000000081526004016110c890613679565b60405180910390fd5b6110db6000611ca1565b565b606060006110ea83610f9d565b905060008167ffffffffffffffff81111561112e577f4e487b7100000000000000000000000000000000000000000000000000000000600052604160045260246000fd5b60405190808252806020026020018201604052801561115c5781602001602082028036833780820191505090505b50905060005b828110156111cc5761117485826109d9565b8282815181106111ad577f4e487b7100000000000000000000000000000000000000000000000000000000600052603260045260246000fd5b60200260200101818152505080806111c490613ab0565b915050611162565b508092505050919050565b678ac7230489e8000081565b6000600a60009054906101000a900473ffffffffffffffffffffffffffffffffffffffff16905090565b60606001805461121c90613a4d565b80601f016020809104026020016040519081016040528092919081815260200182805461124890613a4d565b80156112955780601f1061126a57610100808354040283529160200191611295565b820191906000526020600020905b81548152906001019060200180831161127857829003601f168201915b5050505050905090565b6112b16112aa611847565b8383611d67565b5050565b6112c66112c0611847565b83611908565b611305576040517f08c379a00000000000000000000000000000000000000000000000000000000081526004016112fc90613719565b60405180910390fd5b61131184848484611ed4565b50505050565b61131f611847565b73ffffffffffffffffffffffffffffffffffffffff1661133d6111e3565b73ffffffffffffffffffffffffffffffffffffffff1614611393576040517f08c379a000000000000000000000000000000000000000000000000000000000815260040161138a90613679565b60405180910390fd5b600061139f600b611c42565b9050614e206113b78383611c5090919063ffffffff16565b106113f7576040517f08c379a00000000000000000000000000000000000000000000000000000000081526004016113ee90613619565b60405180910390fd5b60005b8281101561141d5761140a611c7c565b808061141590613ab0565b9150506113fa565b505050565b606061142d826117db565b61146c576040517f08c379a0000000000000000000000000000000000000000000000000000000008152600401611463906136b9565b60405180910390fd5b6000611476611f30565b9050600081511161149657604051806020016040528060008152506114c1565b806114a084611fc2565b6040516020016114b192919061335a565b6040516020818303038152906040525b915050919050565b600c80546114d690613a4d565b80601f016020809104026020016040519081016040528092919081815260200182805461150290613a4d565b801561154f5780601f106115245761010080835404028352916020019161154f565b820191906000526020600020905b81548152906001019060200180831161153257829003601f168201915b505050505081565b6000600560008473ffffffffffffffffffffffffffffffffffffffff1673ffffffffffffffffffffffffffffffffffffffff16815260200190815260200160002060008373ffffffffffffffffffffffffffffffffffffffff1673ffffffffffffffffffffffffffffffffffffffff16815260200190815260200160002060009054906101000a900460ff16905092915050565b6115f3611847565b73ffffffffffffffffffffffffffffffffffffffff166116116111e3565b73ffffffffffffffffffffffffffffffffffffffff1614611667576040517f08c379a000000000000000000000000000000000000000000000000000000000815260040161165e90613679565b60405180910390fd5b600073ffffffffffffffffffffffffffffffffffffffff168173ffffffffffffffffffffffffffffffffffffffff1614156116d7576040517f08c379a00000000000000000000000000000000000000000000000000000000081526004016116ce906134d9565b60405180910390fd5b6116e081611ca1565b50565b6001816000016000828254019250508190555050565b60007f80ac58cd000000000000000000000000000000000000000000000000000000007bffffffffffffffffffffffffffffffffffffffffffffffffffffffff1916827bffffffffffffffffffffffffffffffffffffffffffffffffffffffff191614806117c457507f5b5e139f000000000000000000000000000000000000000000000000000000007bffffffffffffffffffffffffffffffffffffffffffffffffffffffff1916827bffffffffffffffffffffffffffffffffffffffffffffffffffffffff1916145b806117d457506117d38261216f565b5b9050919050565b60008073ffffffffffffffffffffffffffffffffffffffff166002600084815260200190815260200160002060009054906101000a900473ffffffffffffffffffffffffffffffffffffffff1673ffffffffffffffffffffffffffffffffffffffff1614159050919050565b600033905090565b816004600083815260200190815260200160002060006101000a81548173ffffffffffffffffffffffffffffffffffffffff021916908373ffffffffffffffffffffffffffffffffffffffff160217905550808273ffffffffffffffffffffffffffffffffffffffff166118c283610eeb565b73ffffffffffffffffffffffffffffffffffffffff167f8c5be1e5ebec7d5bd14f71427d1e84f3dd0314c0f7b2291e5b200ac8c7c3b92560405160405180910390a45050565b6000611913826117db565b611952576040517f08c379a000000000000000000000000000000000000000000000000000000000815260040161194990613579565b60405180910390fd5b600061195d83610eeb565b90508073ffffffffffffffffffffffffffffffffffffffff168473ffffffffffffffffffffffffffffffffffffffff1614806119cc57508373ffffffffffffffffffffffffffffffffffffffff166119b4846107ca565b73ffffffffffffffffffffffffffffffffffffffff16145b806119dd57506119dc8185611557565b5b91505092915050565b8273ffffffffffffffffffffffffffffffffffffffff16611a0682610eeb565b73ffffffffffffffffffffffffffffffffffffffff1614611a5c576040517f08c379a0000000000000000000000000000000000000000000000000000000008152600401611a5390613699565b60405180910390fd5b600073ffffffffffffffffffffffffffffffffffffffff168273ffffffffffffffffffffffffffffffffffffffff161415611acc576040517f08c379a0000000000000000000000000000000000000000000000000000000008152600401611ac390613519565b60405180910390fd5b611ad78383836121d9565b611ae260008261184f565b6001600360008573ffffffffffffffffffffffffffffffffffffffff1673ffffffffffffffffffffffffffffffffffffffff1681526020019081526020016000206000828254611b329190613963565b925050819055506001600360008473ffffffffffffffffffffffffffffffffffffffff1673ffffffffffffffffffffffffffffffffffffffff1681526020019081526020016000206000828254611b899190613882565b92505081905550816002600083815260200190815260200160002060006101000a81548173ffffffffffffffffffffffffffffffffffffffff021916908373ffffffffffffffffffffffffffffffffffffffff160217905550808273ffffffffffffffffffffffffffffffffffffffff168473ffffffffffffffffffffffffffffffffffffffff167fddf252ad1be2c89b69c2b068fc378daa952ba7f163c4a11628f55a4df523b3ef60405160405180910390a4505050565b600081600001549050919050565b60008183611c5e9190613882565b905092915050565b60008183611c749190613909565b905092915050565b6000611c88600b611c42565b9050611c9433826122ed565b611c9e600b6116e3565b50565b6000600a60009054906101000a900473ffffffffffffffffffffffffffffffffffffffff16905081600a60006101000a81548173ffffffffffffffffffffffffffffffffffffffff021916908373ffffffffffffffffffffffffffffffffffffffff1602179055508173ffffffffffffffffffffffffffffffffffffffff168173ffffffffffffffffffffffffffffffffffffffff167f8be0079c531659141344cd1fd0a4f28419497f9722a3daafe3b4186f6b6457e060405160405180910390a35050565b8173ffffffffffffffffffffffffffffffffffffffff168373ffffffffffffffffffffffffffffffffffffffff161415611dd6576040517f08c379a0000000000000000000000000000000000000000000000000000000008152600401611dcd90613539565b60405180910390fd5b80600560008573ffffffffffffffffffffffffffffffffffffffff1673ffffffffffffffffffffffffffffffffffffffff16815260200190815260200160002060008473ffffffffffffffffffffffffffffffffffffffff1673ffffffffffffffffffffffffffffffffffffffff16815260200190815260200160002060006101000a81548160ff0219169083151502179055508173ffffffffffffffffffffffffffffffffffffffff168373ffffffffffffffffffffffffffffffffffffffff167f17307eab39ab6107e8899845ad3d59bd9653f200f220920489ca2b5937696c3183604051611ec7919061341c565b60405180910390a3505050565b611edf8484846119e6565b611eeb8484848461230b565b611f2a576040517f08c379a0000000000000000000000000000000000000000000000000000000008152600401611f21906134b9565b60405180910390fd5b50505050565b6060600c8054611f3f90613a4d565b80601f0160208091040260200160405190810160405280929190818152602001828054611f6b90613a4d565b8015611fb85780601f10611f8d57610100808354040283529160200191611fb8565b820191906000526020600020905b815481529060010190602001808311611f9b57829003601f168201915b5050505050905090565b6060600082141561200a576040518060400160405280600181526020017f3000000000000000000000000000000000000000000000000000000000000000815250905061216a565b600082905060005b6000821461203c57808061202590613ab0565b915050600a8261203591906138d8565b9150612012565b60008167ffffffffffffffff81111561207e577f4e487b7100000000000000000000000000000000000000000000000000000000600052604160045260246000fd5b6040519080825280601f01601f1916602001820160405280156120b05781602001600182028036833780820191505090505b5090505b60008514612163576001826120c99190613963565b9150600a856120d89190613af9565b60306120e49190613882565b60f81b818381518110612120577f4e487b7100000000000000000000000000000000000000000000000000000000600052603260045260246000fd5b60200101907effffffffffffffffffffffffffffffffffffffffffffffffffffffffffffff1916908160001a905350600a8561215c91906138d8565b94506120b4565b8093505050505b919050565b60007f01ffc9a7000000000000000000000000000000000000000000000000000000007bffffffffffffffffffffffffffffffffffffffffffffffffffffffff1916827bffffffffffffffffffffffffffffffffffffffffffffffffffffffff1916149050919050565b6121e48383836124a2565b600073ffffffffffffffffffffffffffffffffffffffff168373ffffffffffffffffffffffffffffffffffffffff16141561222757612222816124a7565b612266565b8173ffffffffffffffffffffffffffffffffffffffff168373ffffffffffffffffffffffffffffffffffffffff16146122655761226483826124f0565b5b5b600073ffffffffffffffffffffffffffffffffffffffff168273ffffffffffffffffffffffffffffffffffffffff1614156122a9576122a48161265d565b6122e8565b8273ffffffffffffffffffffffffffffffffffffffff168273ffffffffffffffffffffffffffffffffffffffff16146122e7576122e682826127a0565b5b5b505050565b61230782826040518060200160405280600081525061281f565b5050565b600061232c8473ffffffffffffffffffffffffffffffffffffffff1661287a565b15612495578373ffffffffffffffffffffffffffffffffffffffff1663150b7a02612355611847565b8786866040518563ffffffff1660e01b815260040161237794939291906133ae565b602060405180830381600087803b15801561239157600080fd5b505af19250505080156123c257506040513d601f19601f820116820180604052508101906123bf9190612e07565b60015b612445573d80600081146123f2576040519150601f19603f3d011682016040523d82523d6000602084013e6123f7565b606091505b5060008151141561243d576040517f08c379a0000000000000000000000000000000000000000000000000000000008152600401612434906134b9565b60405180910390fd5b805181602001fd5b63150b7a0260e01b7bffffffffffffffffffffffffffffffffffffffffffffffffffffffff1916817bffffffffffffffffffffffffffffffffffffffffffffffffffffffff19161491505061249a565b600190505b949350505050565b505050565b6008805490506009600083815260200190815260200160002081905550600881908060018154018082558091505060019003906000526020600020016000909190919091505550565b600060016124fd84610f9d565b6125079190613963565b90506000600760008481526020019081526020016000205490508181146125ec576000600660008673ffffffffffffffffffffffffffffffffffffffff1673ffffffffffffffffffffffffffffffffffffffff168152602001908152602001600020600084815260200190815260200160002054905080600660008773ffffffffffffffffffffffffffffffffffffffff1673ffffffffffffffffffffffffffffffffffffffff168152602001908152602001600020600084815260200190815260200160002081905550816007600083815260200190815260200160002081905550505b6007600084815260200190815260200160002060009055600660008573ffffffffffffffffffffffffffffffffffffffff1673ffffffffffffffffffffffffffffffffffffffff16815260200190815260200160002060008381526020019081526020016000206000905550505050565b600060016008805490506126719190613963565b90506000600960008481526020019081526020016000205490506000600883815481106126c7577f4e487b7100000000000000000000000000000000000000000000000000000000600052603260045260246000fd5b90600052602060002001549050806008838154811061270f577f4e487b7100000000000000000000000000000000000000000000000000000000600052603260045260246000fd5b906000526020600020018190555081600960008381526020019081526020016000208190555060096000858152602001908152602001600020600090556008805480612784577f4e487b7100000000000000000000000000000000000000000000000000000000600052603160045260246000fd5b6001900381819060005260206000200160009055905550505050565b60006127ab83610f9d565b905081600660008573ffffffffffffffffffffffffffffffffffffffff1673ffffffffffffffffffffffffffffffffffffffff168152602001908152602001600020600083815260200190815260200160002081905550806007600084815260200190815260200160002081905550505050565b612829838361288d565b612836600084848461230b565b612875576040517f08c379a000000000000000000000000000000000000000000000000000000000815260040161286c906134b9565b60405180910390fd5b505050565b600080823b905060008111915050919050565b600073ffffffffffffffffffffffffffffffffffffffff168273ffffffffffffffffffffffffffffffffffffffff1614156128fd576040517f08c379a00000000000000000000000000000000000000000000000000000000081526004016128f490613639565b60405180910390fd5b612906816117db565b15612946576040517f08c379a000000000000000000000000000000000000000000000000000000000815260040161293d906134f9565b60405180910390fd5b612952600083836121d9565b6001600360008473ffffffffffffffffffffffffffffffffffffffff1673ffffffffffffffffffffffffffffffffffffffff16815260200190815260200160002060008282546129a29190613882565b92505081905550816002600083815260200190815260200160002060006101000a81548173ffffffffffffffffffffffffffffffffffffffff021916908373ffffffffffffffffffffffffffffffffffffffff160217905550808273ffffffffffffffffffffffffffffffffffffffff16600073ffffffffffffffffffffffffffffffffffffffff167fddf252ad1be2c89b69c2b068fc378daa952ba7f163c4a11628f55a4df523b3ef60405160405180910390a45050565b828054612a6790613a4d565b90600052602060002090601f016020900481019282612a895760008555612ad0565b82601f10612aa257805160ff1916838001178555612ad0565b82800160010185558215612ad0579182015b82811115612acf578251825591602001919060010190612ab4565b5b509050612add9190612ae1565b5090565b5b80821115612afa576000816000905550600101612ae2565b5090565b6000612b11612b0c84613799565b613774565b905082815260208101848484011115612b2957600080fd5b612b34848285613a0b565b509392505050565b6000612b4f612b4a846137ca565b613774565b905082815260208101848484011115612b6757600080fd5b612b72848285613a0b565b509392505050565b600081359050612b8981614232565b92915050565b600081359050612b9e81614249565b92915050565b600081359050612bb381614260565b92915050565b600081519050612bc881614260565b92915050565b600082601f830112612bdf57600080fd5b8135612bef848260208601612afe565b91505092915050565b600082601f830112612c0957600080fd5b8135612c19848260208601612b3c565b91505092915050565b600081359050612c3181614277565b92915050565b600060208284031215612c4957600080fd5b6000612c5784828501612b7a565b91505092915050565b60008060408385031215612c7357600080fd5b6000612c8185828601612b7a565b9250506020612c9285828601612b7a565b9150509250929050565b600080600060608486031215612cb157600080fd5b6000612cbf86828701612b7a565b9350506020612cd086828701612b7a565b9250506040612ce186828701612c22565b9150509250925092565b60008060008060808587031215612d0157600080fd5b6000612d0f87828801612b7a565b9450506020612d2087828801612b7a565b9350506040612d3187828801612c22565b925050606085013567ffffffffffffffff811115612d4e57600080fd5b612d5a87828801612bce565b91505092959194509250565b60008060408385031215612d7957600080fd5b6000612d8785828601612b7a565b9250506020612d9885828601612b8f565b9150509250929050565b60008060408385031215612db557600080fd5b6000612dc385828601612b7a565b9250506020612dd485828601612c22565b9150509250929050565b600060208284031215612df057600080fd5b6000612dfe84828501612ba4565b91505092915050565b600060208284031215612e1957600080fd5b6000612e2784828501612bb9565b91505092915050565b600060208284031215612e4257600080fd5b600082013567ffffffffffffffff811115612e5c57600080fd5b612e6884828501612bf8565b91505092915050565b600060208284031215612e8357600080fd5b6000612e9184828501612c22565b91505092915050565b6000612ea6838361333c565b60208301905092915050565b612ebb81613997565b82525050565b6000612ecc8261380b565b612ed68185613839565b9350612ee1836137fb565b8060005b83811015612f12578151612ef98882612e9a565b9750612f048361382c565b925050600181019050612ee5565b5085935050505092915050565b612f28816139a9565b82525050565b6000612f3982613816565b612f43818561384a565b9350612f53818560208601613a1a565b612f5c81613be6565b840191505092915050565b6000612f7282613821565b612f7c8185613866565b9350612f8c818560208601613a1a565b612f9581613be6565b840191505092915050565b6000612fab82613821565b612fb58185613877565b9350612fc5818560208601613a1a565b80840191505092915050565b6000612fde602283613866565b9150612fe982613bf7565b604082019050919050565b6000613001601083613866565b915061300c82613c46565b602082019050919050565b6000613024602b83613866565b915061302f82613c6f565b604082019050919050565b6000613047603283613866565b915061305282613cbe565b604082019050919050565b600061306a602683613866565b915061307582613d0d565b604082019050919050565b600061308d601c83613866565b915061309882613d5c565b602082019050919050565b60006130b0602483613866565b91506130bb82613d85565b604082019050919050565b60006130d3601983613866565b91506130de82613dd4565b602082019050919050565b60006130f6602583613866565b915061310182613dfd565b604082019050919050565b6000613119602c83613866565b915061312482613e4c565b604082019050919050565b600061313c601983613866565b915061314782613e9b565b602082019050919050565b600061315f603883613866565b915061316a82613ec4565b604082019050919050565b6000613182602a83613866565b915061318d82613f13565b604082019050919050565b60006131a5602983613866565b91506131b082613f62565b604082019050919050565b60006131c8600f83613866565b91506131d382613fb1565b602082019050919050565b60006131eb602083613866565b91506131f682613fda565b602082019050919050565b600061320e602c83613866565b915061321982614003565b604082019050919050565b6000613231602083613866565b915061323c82614052565b602082019050919050565b6000613254602983613866565b915061325f8261407b565b604082019050919050565b6000613277602f83613866565b9150613282826140ca565b604082019050919050565b600061329a602183613866565b91506132a582614119565b604082019050919050565b60006132bd60008361385b565b91506132c882614168565b600082019050919050565b60006132e0601083613866565b91506132eb8261416b565b602082019050919050565b6000613303603183613866565b915061330e82614194565b604082019050919050565b6000613326602c83613866565b9150613331826141e3565b604082019050919050565b61334581613a01565b82525050565b61335481613a01565b82525050565b60006133668285612fa0565b91506133728284612fa0565b91508190509392505050565b6000613389826132b0565b9150819050919050565b60006020820190506133a86000830184612eb2565b92915050565b60006080820190506133c36000830187612eb2565b6133d06020830186612eb2565b6133dd604083018561334b565b81810360608301526133ef8184612f2e565b905095945050505050565b600060208201905081810360008301526134148184612ec1565b905092915050565b60006020820190506134316000830184612f1f565b92915050565b600060208201905081810360008301526134518184612f67565b905092915050565b6000602082019050818103600083015261347281612fd1565b9050919050565b6000602082019050818103600083015261349281612ff4565b9050919050565b600060208201905081810360008301526134b281613017565b9050919050565b600060208201905081810360008301526134d28161303a565b9050919050565b600060208201905081810360008301526134f28161305d565b9050919050565b6000602082019050818103600083015261351281613080565b9050919050565b60006020820190508181036000830152613532816130a3565b9050919050565b60006020820190508181036000830152613552816130c6565b9050919050565b60006020820190508181036000830152613572816130e9565b9050919050565b600060208201905081810360008301526135928161310c565b9050919050565b600060208201905081810360008301526135b28161312f565b9050919050565b600060208201905081810360008301526135d281613152565b9050919050565b600060208201905081810360008301526135f281613175565b9050919050565b6000602082019050818103600083015261361281613198565b9050919050565b60006020820190508181036000830152613632816131bb565b9050919050565b60006020820190508181036000830152613652816131de565b9050919050565b6000602082019050818103600083015261367281613201565b9050919050565b6000602082019050818103600083015261369281613224565b9050919050565b600060208201905081810360008301526136b281613247565b9050919050565b600060208201905081810360008301526136d28161326a565b9050919050565b600060208201905081810360008301526136f28161328d565b9050919050565b60006020820190508181036000830152613712816132d3565b9050919050565b60006020820190508181036000830152613732816132f6565b9050919050565b6000602082019050818103600083015261375281613319565b9050919050565b600060208201905061376e600083018461334b565b92915050565b600061377e61378f565b905061378a8282613a7f565b919050565b6000604051905090565b600067ffffffffffffffff8211156137b4576137b3613bb7565b5b6137bd82613be6565b9050602081019050919050565b600067ffffffffffffffff8211156137e5576137e4613bb7565b5b6137ee82613be6565b9050602081019050919050565b6000819050602082019050919050565b600081519050919050565b600081519050919050565b600081519050919050565b6000602082019050919050565b600082825260208201905092915050565b600082825260208201905092915050565b600081905092915050565b600082825260208201905092915050565b600081905092915050565b600061388d82613a01565b915061389883613a01565b9250827fffffffffffffffffffffffffffffffffffffffffffffffffffffffffffffffff038211156138cd576138cc613b2a565b5b828201905092915050565b60006138e382613a01565b91506138ee83613a01565b9250826138fe576138fd613b59565b5b828204905092915050565b600061391482613a01565b915061391f83613a01565b9250817fffffffffffffffffffffffffffffffffffffffffffffffffffffffffffffffff048311821515161561395857613957613b2a565b5b828202905092915050565b600061396e82613a01565b915061397983613a01565b92508282101561398c5761398b613b2a565b5b828203905092915050565b60006139a2826139e1565b9050919050565b60008115159050919050565b60007fffffffff0000000000000000000000000000000000000000000000000000000082169050919050565b600073ffffffffffffffffffffffffffffffffffffffff82169050919050565b6000819050919050565b82818337600083830152505050565b60005b83811015613a38578082015181840152602081019050613a1d565b83811115613a47576000848401525b50505050565b60006002820490506001821680613a6557607f821691505b60208210811415613a7957613a78613b88565b5b50919050565b613a8882613be6565b810181811067ffffffffffffffff82111715613aa757613aa6613bb7565b5b80604052505050565b6000613abb82613a01565b91507fffffffffffffffffffffffffffffffffffffffffffffffffffffffffffffffff821415613aee57613aed613b2a565b5b600182019050919050565b6000613b0482613a01565b9150613b0f83613a01565b925082613b1f57613b1e613b59565b5b828206905092915050565b7f4e487b7100000000000000000000000000000000000000000000000000000000600052601160045260246000fd5b7f4e487b7100000000000000000000000000000000000000000000000000000000600052601260045260246000fd5b7f4e487b7100000000000000000000000000000000000000000000000000000000600052602260045260246000fd5b7f4e487b7100000000000000000000000000000000000000000000000000000000600052604160045260246000fd5b6000601f19601f8301169050919050565b7f4e6f7420656e6f756768206d6174696320746f207075726368617365204e465460008201527f732e000000000000000000000000000000000000000000000000000000000000602082015250565b7f4e6f7420656e6f756768204e4654732100000000000000000000000000000000600082015250565b7f455243373231456e756d657261626c653a206f776e657220696e646578206f7560008201527f74206f6620626f756e6473000000000000000000000000000000000000000000602082015250565b7f4552433732313a207472616e7366657220746f206e6f6e20455243373231526560008201527f63656976657220696d706c656d656e7465720000000000000000000000000000602082015250565b7f4f776e61626c653a206e6577206f776e657220697320746865207a65726f206160008201527f6464726573730000000000000000000000000000000000000000000000000000602082015250565b7f4552433732313a20746f6b656e20616c7265616479206d696e74656400000000600082015250565b7f4552433732313a207472616e7366657220746f20746865207a65726f2061646460008201527f7265737300000000000000000000000000000000000000000000000000000000602082015250565b7f4552433732313a20617070726f766520746f2063616c6c657200000000000000600082015250565b7f43616e6e6f74206d696e7420737065636966696564206e756d626572206f662060008201527f4e4654732e000000000000000000000000000000000000000000000000000000602082015250565b7f4552433732313a206f70657261746f7220717565727920666f72206e6f6e657860008201527f697374656e7420746f6b656e0000000000000000000000000000000000000000602082015250565b7f4e6f206d61746963206c65667420746f20776974686472617700000000000000600082015250565b7f4552433732313a20617070726f76652063616c6c6572206973206e6f74206f7760008201527f6e6572206e6f7220617070726f76656420666f7220616c6c0000000000000000602082015250565b7f4552433732313a2062616c616e636520717565727920666f7220746865207a6560008201527f726f206164647265737300000000000000000000000000000000000000000000602082015250565b7f4552433732313a206f776e657220717565727920666f72206e6f6e657869737460008201527f656e7420746f6b656e0000000000000000000000000000000000000000000000602082015250565b7f4e6f7420656e6f756768204e4654730000000000000000000000000000000000600082015250565b7f4552433732313a206d696e7420746f20746865207a65726f2061646472657373600082015250565b7f4552433732313a20617070726f76656420717565727920666f72206e6f6e657860008201527f697374656e7420746f6b656e0000000000000000000000000000000000000000602082015250565b7f4f776e61626c653a2063616c6c6572206973206e6f7420746865206f776e6572600082015250565b7f4552433732313a207472616e73666572206f6620746f6b656e2074686174206960008201527f73206e6f74206f776e0000000000000000000000000000000000000000000000602082015250565b7f4552433732314d657461646174613a2055524920717565727920666f72206e6f60008201527f6e6578697374656e7420746f6b656e0000000000000000000000000000000000602082015250565b7f4552433732313a20617070726f76616c20746f2063757272656e74206f776e6560008201527f7200000000000000000000000000000000000000000000000000000000000000602082015250565b50565b7f5472616e73666572206661696c65642e00000000000000000000000000000000600082015250565b7f4552433732313a207472616e736665722063616c6c6572206973206e6f74206f60008201527f776e6572206e6f7220617070726f766564000000000000000000000000000000602082015250565b7f455243373231456e756d657261626c653a20676c6f62616c20696e646578206f60008201527f7574206f6620626f756e64730000000000000000000000000000000000000000602082015250565b61423b81613997565b811461424657600080fd5b50565b614252816139a9565b811461425d57600080fd5b50565b614269816139b5565b811461427457600080fd5b50565b61428081613a01565b811461428b57600080fd5b5056fea26469706673582212203c07f599cf4416044f51b02f0f50a0a985c25a4334c7f1347e8600e47413dae364736f6c63430008040033",
  "linkReferences": {},
  "deployedLinkReferences": {}
}